{
  "_format": "hh-sol-artifact-1",
  "contractName": "Deposit",
  "sourceName": "contracts/Deposit.sol",
  "abi": [
    {
      "inputs": [
        {
          "internalType": "address",
          "name": "_qve",
          "type": "address"
        },
        {
          "internalType": "address",
          "name": "_usdt",
          "type": "address"
        },
        {
          "internalType": "address",
          "name": "_usdc",
          "type": "address"
        },
        {
          "internalType": "address",
          "name": "_eth",
          "type": "address"
        },
        {
          "internalType": "address",
          "name": "_bnb",
          "type": "address"
        },
        {
          "internalType": "address",
          "name": "_qveNft",
          "type": "address"
        }
      ],
      "stateMutability": "nonpayable",
      "type": "constructor"
    },
    {
      "inputs": [],
      "name": "bnb",
      "outputs": [
        {
          "internalType": "contract IERC20",
          "name": "",
          "type": "address"
        }
      ],
      "stateMutability": "view",
      "type": "function"
    },
    {
      "inputs": [
        {
          "internalType": "address",
          "name": "_tokenType",
          "type": "address"
        },
        {
          "internalType": "uint256",
          "name": "_amount",
          "type": "uint256"
        },
        {
          "internalType": "string",
          "name": "tokenURI",
          "type": "string"
        }
      ],
      "name": "deposit",
      "outputs": [],
      "stateMutability": "nonpayable",
      "type": "function"
    },
    {
      "inputs": [],
      "name": "eth",
      "outputs": [
        {
          "internalType": "contract IERC20",
          "name": "",
          "type": "address"
        }
      ],
      "stateMutability": "view",
      "type": "function"
    },
    {
      "inputs": [],
      "name": "qve",
      "outputs": [
        {
          "internalType": "contract IERC20",
          "name": "",
          "type": "address"
        }
      ],
      "stateMutability": "view",
      "type": "function"
    },
    {
      "inputs": [],
      "name": "qveNft",
      "outputs": [
        {
          "internalType": "contract QveNFT",
          "name": "",
          "type": "address"
        }
      ],
      "stateMutability": "view",
      "type": "function"
    },
    {
      "inputs": [
        {
          "internalType": "address",
          "name": "_tokenType",
          "type": "address"
        },
        {
          "internalType": "uint256",
          "name": "_amount",
          "type": "uint256"
        }
      ],
      "name": "stake",
      "outputs": [],
      "stateMutability": "nonpayable",
      "type": "function"
    },
    {
      "inputs": [],
      "name": "usdc",
      "outputs": [
        {
          "internalType": "contract IERC20",
          "name": "",
          "type": "address"
        }
      ],
      "stateMutability": "view",
      "type": "function"
    },
    {
      "inputs": [],
      "name": "usdt",
      "outputs": [
        {
          "internalType": "contract IERC20",
          "name": "",
          "type": "address"
        }
      ],
      "stateMutability": "view",
      "type": "function"
    }
  ],
  "bytecode": "0x608060405234801561001057600080fd5b5060405162000cd438038062000cd4833981810160405281019061003491906101d9565b856000806101000a81548173ffffffffffffffffffffffffffffffffffffffff021916908373ffffffffffffffffffffffffffffffffffffffff16021790555084600160006101000a81548173ffffffffffffffffffffffffffffffffffffffff021916908373ffffffffffffffffffffffffffffffffffffffff16021790555083600260006101000a81548173ffffffffffffffffffffffffffffffffffffffff021916908373ffffffffffffffffffffffffffffffffffffffff16021790555082600360006101000a81548173ffffffffffffffffffffffffffffffffffffffff021916908373ffffffffffffffffffffffffffffffffffffffff16021790555081600460006101000a81548173ffffffffffffffffffffffffffffffffffffffff021916908373ffffffffffffffffffffffffffffffffffffffff16021790555080600560006101000a81548173ffffffffffffffffffffffffffffffffffffffff021916908373ffffffffffffffffffffffffffffffffffffffff1602179055505050505050506102ab565b6000815190506101d381610294565b92915050565b60008060008060008060c087890312156101f257600080fd5b600061020089828a016101c4565b965050602061021189828a016101c4565b955050604061022289828a016101c4565b945050606061023389828a016101c4565b935050608061024489828a016101c4565b92505060a061025589828a016101c4565b9150509295509295509295565b600061026d82610274565b9050919050565b600073ffffffffffffffffffffffffffffffffffffffff82169050919050565b61029d81610262565b81146102a857600080fd5b50565b610a1980620002bb6000396000f3fe608060405234801561001057600080fd5b50600436106100885760003560e01c8063863ea36e1161005b578063863ea36e146101055780638c7c9e0c14610123578063adc9772e14610141578063bfe07da61461015d57610088565b80630ad235341461008d5780632f48ab7d146100ab5780633e413bee146100c957806349a876e4146100e7575b600080fd5b610095610179565b6040516100a29190610785565b60405180910390f35b6100b361019f565b6040516100c0919061076a565b60405180910390f35b6100d16101c5565b6040516100de919061076a565b60405180910390f35b6100ef6101eb565b6040516100fc919061076a565b60405180910390f35b61010d610211565b60405161011a919061076a565b60405180910390f35b61012b610235565b604051610138919061076a565b60405180910390f35b61015b60048036038101906101569190610576565b61025b565b005b610177600480360381019061017291906105b2565b610332565b005b600560009054906101000a900473ffffffffffffffffffffffffffffffffffffffff1681565b600160009054906101000a900473ffffffffffffffffffffffffffffffffffffffff1681565b600260009054906101000a900473ffffffffffffffffffffffffffffffffffffffff1681565b600460009054906101000a900473ffffffffffffffffffffffffffffffffffffffff1681565b60008054906101000a900473ffffffffffffffffffffffffffffffffffffffff1681565b600360009054906101000a900473ffffffffffffffffffffffffffffffffffffffff1681565b6000811161029e576040517f08c379a0000000000000000000000000000000000000000000000000000000008152600401610295906107a0565b60405180910390fd5b8173ffffffffffffffffffffffffffffffffffffffff166323b872dd3330846040518463ffffffff1660e01b81526004016102db93929190610703565b602060405180830381600087803b1580156102f557600080fd5b505af1158015610309573d6000803e3d6000fd5b505050506040513d601f19601f8201168201806040525081019061032d9190610619565b505050565b60008211610375576040517f08c379a000000000000000000000000000000000000000000000000000000000815260040161036c906107a0565b60405180910390fd5b8273ffffffffffffffffffffffffffffffffffffffff166323b872dd3330856040518463ffffffff1660e01b81526004016103b293929190610703565b602060405180830381600087803b1580156103cc57600080fd5b505af11580156103e0573d6000803e3d6000fd5b505050506040513d601f19601f820116820180604052508101906104049190610619565b50600560009054906101000a900473ffffffffffffffffffffffffffffffffffffffff1673ffffffffffffffffffffffffffffffffffffffff1663eacabe1433836040518363ffffffff1660e01b815260040161046292919061073a565b602060405180830381600087803b15801561047c57600080fd5b505af1158015610490573d6000803e3d6000fd5b505050506040513d601f19601f820116820180604052508101906104b49190610642565b50505050565b60006104cd6104c8846107e5565b6107c0565b9050828152602081018484840111156104e557600080fd5b6104f08482856108c2565b509392505050565b6000813590506105078161099e565b92915050565b60008151905061051c816109b5565b92915050565b600082601f83011261053357600080fd5b81356105438482602086016104ba565b91505092915050565b60008135905061055b816109cc565b92915050565b600081519050610570816109cc565b92915050565b6000806040838503121561058957600080fd5b6000610597858286016104f8565b92505060206105a88582860161054c565b9150509250929050565b6000806000606084860312156105c757600080fd5b60006105d5868287016104f8565b93505060206105e68682870161054c565b925050604084013567ffffffffffffffff81111561060357600080fd5b61060f86828701610522565b9150509250925092565b60006020828403121561062b57600080fd5b60006106398482850161050d565b91505092915050565b60006020828403121561065457600080fd5b600061066284828501610561565b91505092915050565b61067481610832565b82525050565b6106838161087a565b82525050565b6106928161089e565b82525050565b60006106a382610816565b6106ad8185610821565b93506106bd8185602086016108d1565b6106c681610964565b840191505092915050565b60006106de601283610821565b91506106e982610975565b602082019050919050565b6106fd81610870565b82525050565b6000606082019050610718600083018661066b565b610725602083018561066b565b61073260408301846106f4565b949350505050565b600060408201905061074f600083018561066b565b81810360208301526107618184610698565b90509392505050565b600060208201905061077f600083018461067a565b92915050565b600060208201905061079a6000830184610689565b92915050565b600060208201905081810360008301526107b9816106d1565b9050919050565b60006107ca6107db565b90506107d68282610904565b919050565b6000604051905090565b600067ffffffffffffffff821115610800576107ff610935565b5b61080982610964565b9050602081019050919050565b600081519050919050565b600082825260208201905092915050565b600061083d82610850565b9050919050565b60008115159050919050565b600073ffffffffffffffffffffffffffffffffffffffff82169050919050565b6000819050919050565b60006108858261088c565b9050919050565b600061089782610850565b9050919050565b60006108a9826108b0565b9050919050565b60006108bb82610850565b9050919050565b82818337600083830152505050565b60005b838110156108ef5780820151818401526020810190506108d4565b838111156108fe576000848401525b50505050565b61090d82610964565b810181811067ffffffffffffffff8211171561092c5761092b610935565b5b80604052505050565b7f4e487b7100000000000000000000000000000000000000000000000000000000600052604160045260246000fd5b6000601f19601f8301169050919050565b7f616d6f756e742063616e6e6f7420626520300000000000000000000000000000600082015250565b6109a781610832565b81146109b257600080fd5b50565b6109be81610844565b81146109c957600080fd5b50565b6109d581610870565b81146109e057600080fd5b5056fea264697066735822122006786907f051a363d0359b9fea289f73f05d42df08e491a70b2c6fca44e1d17964736f6c63430008010033",
  "linkReferences": {},
  "deployedLinkReferences": {}
}