{
  "_format": "hh-sol-artifact-1",
  "contractName": "QveNFT",
  "sourceName": "contracts/QveNFT.sol",
  "abi": [
    {
      "inputs": [],
      "stateMutability": "nonpayable",
      "type": "constructor"
    },
    {
      "anonymous": false,
      "inputs": [
        {
          "indexed": true,
          "internalType": "address",
          "name": "owner",
          "type": "address"
        },
        {
          "indexed": true,
          "internalType": "address",
          "name": "approved",
          "type": "address"
        },
        {
          "indexed": true,
          "internalType": "uint256",
          "name": "tokenId",
          "type": "uint256"
        }
      ],
      "name": "Approval",
      "type": "event"
    },
    {
      "anonymous": false,
      "inputs": [
        {
          "indexed": true,
          "internalType": "address",
          "name": "owner",
          "type": "address"
        },
        {
          "indexed": true,
          "internalType": "address",
          "name": "operator",
          "type": "address"
        },
        {
          "indexed": false,
          "internalType": "bool",
          "name": "approved",
          "type": "bool"
        }
      ],
      "name": "ApprovalForAll",
      "type": "event"
    },
    {
      "anonymous": false,
      "inputs": [
        {
          "indexed": true,
          "internalType": "address",
          "name": "previousOwner",
          "type": "address"
        },
        {
          "indexed": true,
          "internalType": "address",
          "name": "newOwner",
          "type": "address"
        }
      ],
      "name": "OwnershipTransferred",
      "type": "event"
    },
    {
      "anonymous": false,
      "inputs": [
        {
          "indexed": true,
          "internalType": "address",
          "name": "from",
          "type": "address"
        },
        {
          "indexed": true,
          "internalType": "address",
          "name": "to",
          "type": "address"
        },
        {
          "indexed": true,
          "internalType": "uint256",
          "name": "tokenId",
          "type": "uint256"
        }
      ],
      "name": "Transfer",
      "type": "event"
    },
    {
      "inputs": [
        {
          "internalType": "address",
          "name": "to",
          "type": "address"
        },
        {
          "internalType": "uint256",
          "name": "tokenId",
          "type": "uint256"
        }
      ],
      "name": "approve",
      "outputs": [],
      "stateMutability": "nonpayable",
      "type": "function"
    },
    {
      "inputs": [
        {
          "internalType": "address",
          "name": "owner",
          "type": "address"
        }
      ],
      "name": "balanceOf",
      "outputs": [
        {
          "internalType": "uint256",
          "name": "",
          "type": "uint256"
        }
      ],
      "stateMutability": "view",
      "type": "function"
    },
    {
      "inputs": [],
      "name": "bnb",
      "outputs": [
        {
          "internalType": "contract IERC20",
          "name": "",
          "type": "address"
        }
      ],
      "stateMutability": "view",
      "type": "function"
    },
    {
      "inputs": [],
      "name": "eth",
      "outputs": [
        {
          "internalType": "contract IERC20",
          "name": "",
          "type": "address"
        }
      ],
      "stateMutability": "view",
      "type": "function"
    },
    {
      "inputs": [
        {
          "internalType": "uint256",
          "name": "tokenId",
          "type": "uint256"
        }
      ],
      "name": "getApproved",
      "outputs": [
        {
          "internalType": "address",
          "name": "",
          "type": "address"
        }
      ],
      "stateMutability": "view",
      "type": "function"
    },
    {
      "inputs": [
        {
          "internalType": "address",
          "name": "owner",
          "type": "address"
        },
        {
          "internalType": "address",
          "name": "operator",
          "type": "address"
        }
      ],
      "name": "isApprovedForAll",
      "outputs": [
        {
          "internalType": "bool",
          "name": "",
          "type": "bool"
        }
      ],
      "stateMutability": "view",
      "type": "function"
    },
    {
      "inputs": [
        {
          "internalType": "address",
          "name": "recipient",
          "type": "address"
        },
        {
          "internalType": "string",
          "name": "tokenURI",
          "type": "string"
        }
      ],
      "name": "mintNFT",
      "outputs": [
        {
          "internalType": "uint256",
          "name": "",
          "type": "uint256"
        }
      ],
      "stateMutability": "nonpayable",
      "type": "function"
    },
    {
      "inputs": [],
      "name": "name",
      "outputs": [
        {
          "internalType": "string",
          "name": "",
          "type": "string"
        }
      ],
      "stateMutability": "view",
      "type": "function"
    },
    {
      "inputs": [],
      "name": "owner",
      "outputs": [
        {
          "internalType": "address",
          "name": "",
          "type": "address"
        }
      ],
      "stateMutability": "view",
      "type": "function"
    },
    {
      "inputs": [
        {
          "internalType": "uint256",
          "name": "tokenId",
          "type": "uint256"
        }
      ],
      "name": "ownerOf",
      "outputs": [
        {
          "internalType": "address",
          "name": "",
          "type": "address"
        }
      ],
      "stateMutability": "view",
      "type": "function"
    },
    {
      "inputs": [],
      "name": "qve",
      "outputs": [
        {
          "internalType": "contract IERC20",
          "name": "",
          "type": "address"
        }
      ],
      "stateMutability": "view",
      "type": "function"
    },
    {
      "inputs": [],
      "name": "renounceOwnership",
      "outputs": [],
      "stateMutability": "nonpayable",
      "type": "function"
    },
    {
      "inputs": [
        {
          "internalType": "address",
          "name": "from",
          "type": "address"
        },
        {
          "internalType": "address",
          "name": "to",
          "type": "address"
        },
        {
          "internalType": "uint256",
          "name": "tokenId",
          "type": "uint256"
        }
      ],
      "name": "safeTransferFrom",
      "outputs": [],
      "stateMutability": "nonpayable",
      "type": "function"
    },
    {
      "inputs": [
        {
          "internalType": "address",
          "name": "from",
          "type": "address"
        },
        {
          "internalType": "address",
          "name": "to",
          "type": "address"
        },
        {
          "internalType": "uint256",
          "name": "tokenId",
          "type": "uint256"
        },
        {
          "internalType": "bytes",
          "name": "data",
          "type": "bytes"
        }
      ],
      "name": "safeTransferFrom",
      "outputs": [],
      "stateMutability": "nonpayable",
      "type": "function"
    },
    {
      "inputs": [
        {
          "internalType": "address",
          "name": "operator",
          "type": "address"
        },
        {
          "internalType": "bool",
          "name": "approved",
          "type": "bool"
        }
      ],
      "name": "setApprovalForAll",
      "outputs": [],
      "stateMutability": "nonpayable",
      "type": "function"
    },
    {
      "inputs": [
        {
          "internalType": "bytes4",
          "name": "interfaceId",
          "type": "bytes4"
        }
      ],
      "name": "supportsInterface",
      "outputs": [
        {
          "internalType": "bool",
          "name": "",
          "type": "bool"
        }
      ],
      "stateMutability": "view",
      "type": "function"
    },
    {
      "inputs": [],
      "name": "symbol",
      "outputs": [
        {
          "internalType": "string",
          "name": "",
          "type": "string"
        }
      ],
      "stateMutability": "view",
      "type": "function"
    },
    {
      "inputs": [
        {
          "internalType": "uint256",
          "name": "tokenId",
          "type": "uint256"
        }
      ],
      "name": "tokenURI",
      "outputs": [
        {
          "internalType": "string",
          "name": "",
          "type": "string"
        }
      ],
      "stateMutability": "view",
      "type": "function"
    },
    {
      "inputs": [
        {
          "internalType": "address",
          "name": "from",
          "type": "address"
        },
        {
          "internalType": "address",
          "name": "to",
          "type": "address"
        },
        {
          "internalType": "uint256",
          "name": "tokenId",
          "type": "uint256"
        }
      ],
      "name": "transferFrom",
      "outputs": [],
      "stateMutability": "nonpayable",
      "type": "function"
    },
    {
      "inputs": [
        {
          "internalType": "address",
          "name": "newOwner",
          "type": "address"
        }
      ],
      "name": "transferOwnership",
      "outputs": [],
      "stateMutability": "nonpayable",
      "type": "function"
    },
    {
      "inputs": [],
      "name": "usdc",
      "outputs": [
        {
          "internalType": "contract IERC20",
          "name": "",
          "type": "address"
        }
      ],
      "stateMutability": "view",
      "type": "function"
    },
    {
      "inputs": [],
      "name": "usdt",
      "outputs": [
        {
          "internalType": "contract IERC20",
          "name": "",
          "type": "address"
        }
      ],
      "stateMutability": "view",
      "type": "function"
    }
  ],
  "bytecode": "0x60806040523480156200001157600080fd5b506040518060400160405280600681526020017f5176654e465400000000000000000000000000000000000000000000000000008152506040518060400160405280600381526020017f4e46540000000000000000000000000000000000000000000000000000000000815250816000908051906020019062000096929190620001a6565b508060019080519060200190620000af929190620001a6565b505050620000d2620000c6620000d860201b60201c565b620000e060201b60201c565b620002bb565b600033905090565b6000600760009054906101000a900473ffffffffffffffffffffffffffffffffffffffff16905081600760006101000a81548173ffffffffffffffffffffffffffffffffffffffff021916908373ffffffffffffffffffffffffffffffffffffffff1602179055508173ffffffffffffffffffffffffffffffffffffffff168173ffffffffffffffffffffffffffffffffffffffff167f8be0079c531659141344cd1fd0a4f28419497f9722a3daafe3b4186f6b6457e060405160405180910390a35050565b828054620001b49062000256565b90600052602060002090601f016020900481019282620001d8576000855562000224565b82601f10620001f357805160ff191683800117855562000224565b8280016001018555821562000224579182015b828111156200022357825182559160200191906001019062000206565b5b50905062000233919062000237565b5090565b5b808211156200025257600081600090555060010162000238565b5090565b600060028204905060018216806200026f57607f821691505b602082108114156200028657620002856200028c565b5b50919050565b7f4e487b7100000000000000000000000000000000000000000000000000000000600052602260045260246000fd5b612e8e80620002cb6000396000f3fe608060405234801561001057600080fd5b50600436106101425760003560e01c8063715018a6116100b8578063a22cb4651161007c578063a22cb46514610355578063b88d4fde14610371578063c87b56dd1461038d578063e985e9c5146103bd578063eacabe14146103ed578063f2fde38b1461041d57610142565b8063715018a6146102d3578063863ea36e146102dd5780638c7c9e0c146102fb5780638da5cb5b1461031957806395d89b411461033757610142565b80632f48ab7d1161010a5780632f48ab7d146101fd5780633e413bee1461021b57806342842e0e1461023957806349a876e4146102555780636352211e1461027357806370a08231146102a357610142565b806301ffc9a71461014757806306fdde0314610177578063081812fc14610195578063095ea7b3146101c557806323b872dd146101e1575b600080fd5b610161600480360381019061015c91906121f0565b610439565b60405161016e91906125bf565b60405180910390f35b61017f61051b565b60405161018c91906125f5565b60405180910390f35b6101af60048036038101906101aa9190612242565b6105ad565b6040516101bc9190612558565b60405180910390f35b6101df60048036038101906101da91906121b4565b6105f3565b005b6101fb60048036038101906101f6919061205a565b61070b565b005b61020561076b565b60405161021291906125da565b60405180910390f35b610223610791565b60405161023091906125da565b60405180910390f35b610253600480360381019061024e919061205a565b6107b7565b005b61025d6107d7565b60405161026a91906125da565b60405180910390f35b61028d60048036038101906102889190612242565b6107fd565b60405161029a9190612558565b60405180910390f35b6102bd60048036038101906102b89190611ff5565b610884565b6040516102ca91906127d7565b60405180910390f35b6102db61093c565b005b6102e5610950565b6040516102f291906125da565b60405180910390f35b610303610976565b60405161031091906125da565b60405180910390f35b61032161099c565b60405161032e9190612558565b60405180910390f35b61033f6109c6565b60405161034c91906125f5565b60405180910390f35b61036f600480360381019061036a9190612124565b610a58565b005b61038b600480360381019061038691906120a9565b610a6e565b005b6103a760048036038101906103a29190612242565b610ad0565b6040516103b491906125f5565b60405180910390f35b6103d760048036038101906103d2919061201e565b610be3565b6040516103e491906125bf565b60405180910390f35b61040760048036038101906104029190612160565b610c77565b60405161041491906127d7565b60405180910390f35b61043760048036038101906104329190611ff5565b610caf565b005b60007f80ac58cd000000000000000000000000000000000000000000000000000000007bffffffffffffffffffffffffffffffffffffffffffffffffffffffff1916827bffffffffffffffffffffffffffffffffffffffffffffffffffffffff1916148061050457507f5b5e139f000000000000000000000000000000000000000000000000000000007bffffffffffffffffffffffffffffffffffffffffffffffffffffffff1916827bffffffffffffffffffffffffffffffffffffffffffffffffffffffff1916145b80610514575061051382610d33565b5b9050919050565b60606000805461052a90612996565b80601f016020809104026020016040519081016040528092919081815260200182805461055690612996565b80156105a35780601f10610578576101008083540402835291602001916105a3565b820191906000526020600020905b81548152906001019060200180831161058657829003601f168201915b5050505050905090565b60006105b882610d9d565b6004600083815260200190815260200160002060009054906101000a900473ffffffffffffffffffffffffffffffffffffffff169050919050565b60006105fe826107fd565b90508073ffffffffffffffffffffffffffffffffffffffff168373ffffffffffffffffffffffffffffffffffffffff16141561066f576040517f08c379a000000000000000000000000000000000000000000000000000000000815260040161066690612797565b60405180910390fd5b8073ffffffffffffffffffffffffffffffffffffffff1661068e610de8565b73ffffffffffffffffffffffffffffffffffffffff1614806106bd57506106bc816106b7610de8565b610be3565b5b6106fc576040517f08c379a00000000000000000000000000000000000000000000000000000000081526004016106f3906127b7565b60405180910390fd5b6107068383610df0565b505050565b61071c610716610de8565b82610ea9565b61075b576040517f08c379a000000000000000000000000000000000000000000000000000000000815260040161075290612617565b60405180910390fd5b610766838383610f3e565b505050565b600a60009054906101000a900473ffffffffffffffffffffffffffffffffffffffff1681565b600b60009054906101000a900473ffffffffffffffffffffffffffffffffffffffff1681565b6107d283838360405180602001604052806000815250610a6e565b505050565b600d60009054906101000a900473ffffffffffffffffffffffffffffffffffffffff1681565b60008061080983611238565b9050600073ffffffffffffffffffffffffffffffffffffffff168173ffffffffffffffffffffffffffffffffffffffff16141561087b576040517f08c379a000000000000000000000000000000000000000000000000000000000815260040161087290612777565b60405180910390fd5b80915050919050565b60008073ffffffffffffffffffffffffffffffffffffffff168273ffffffffffffffffffffffffffffffffffffffff1614156108f5576040517f08c379a00000000000000000000000000000000000000000000000000000000081526004016108ec906126f7565b60405180910390fd5b600360008373ffffffffffffffffffffffffffffffffffffffff1673ffffffffffffffffffffffffffffffffffffffff168152602001908152602001600020549050919050565b610944611275565b61094e60006112f3565b565b600960009054906101000a900473ffffffffffffffffffffffffffffffffffffffff1681565b600c60009054906101000a900473ffffffffffffffffffffffffffffffffffffffff1681565b6000600760009054906101000a900473ffffffffffffffffffffffffffffffffffffffff16905090565b6060600180546109d590612996565b80601f0160208091040260200160405190810160405280929190818152602001828054610a0190612996565b8015610a4e5780601f10610a2357610100808354040283529160200191610a4e565b820191906000526020600020905b815481529060010190602001808311610a3157829003601f168201915b5050505050905090565b610a6a610a63610de8565b83836113b9565b5050565b610a7f610a79610de8565b83610ea9565b610abe576040517f08c379a0000000000000000000000000000000000000000000000000000000008152600401610ab590612617565b60405180910390fd5b610aca84848484611526565b50505050565b6060610adb82610d9d565b6000600660008481526020019081526020016000208054610afb90612996565b80601f0160208091040260200160405190810160405280929190818152602001828054610b2790612996565b8015610b745780601f10610b4957610100808354040283529160200191610b74565b820191906000526020600020905b815481529060010190602001808311610b5757829003601f168201915b505050505090506000610b85611582565b9050600081511415610b9b578192505050610bde565b600082511115610bd0578082604051602001610bb8929190612534565b60405160208183030381529060405292505050610bde565b610bd984611599565b925050505b919050565b6000600560008473ffffffffffffffffffffffffffffffffffffffff1673ffffffffffffffffffffffffffffffffffffffff16815260200190815260200160002060008373ffffffffffffffffffffffffffffffffffffffff1673ffffffffffffffffffffffffffffffffffffffff16815260200190815260200160002060009054906101000a900460ff16905092915050565b6000610c836008611601565b6000610c8f6008611617565b9050610c9b8482611625565b610ca58184611843565b8091505092915050565b610cb7611275565b600073ffffffffffffffffffffffffffffffffffffffff168173ffffffffffffffffffffffffffffffffffffffff161415610d27576040517f08c379a0000000000000000000000000000000000000000000000000000000008152600401610d1e90612657565b60405180910390fd5b610d30816112f3565b50565b60007f01ffc9a7000000000000000000000000000000000000000000000000000000007bffffffffffffffffffffffffffffffffffffffffffffffffffffffff1916827bffffffffffffffffffffffffffffffffffffffffffffffffffffffff1916149050919050565b610da6816118b7565b610de5576040517f08c379a0000000000000000000000000000000000000000000000000000000008152600401610ddc90612777565b60405180910390fd5b50565b600033905090565b816004600083815260200190815260200160002060006101000a81548173ffffffffffffffffffffffffffffffffffffffff021916908373ffffffffffffffffffffffffffffffffffffffff160217905550808273ffffffffffffffffffffffffffffffffffffffff16610e63836107fd565b73ffffffffffffffffffffffffffffffffffffffff167f8c5be1e5ebec7d5bd14f71427d1e84f3dd0314c0f7b2291e5b200ac8c7c3b92560405160405180910390a45050565b600080610eb5836107fd565b90508073ffffffffffffffffffffffffffffffffffffffff168473ffffffffffffffffffffffffffffffffffffffff161480610ef75750610ef68185610be3565b5b80610f3557508373ffffffffffffffffffffffffffffffffffffffff16610f1d846105ad565b73ffffffffffffffffffffffffffffffffffffffff16145b91505092915050565b8273ffffffffffffffffffffffffffffffffffffffff16610f5e826107fd565b73ffffffffffffffffffffffffffffffffffffffff1614610fb4576040517f08c379a0000000000000000000000000000000000000000000000000000000008152600401610fab90612677565b60405180910390fd5b600073ffffffffffffffffffffffffffffffffffffffff168273ffffffffffffffffffffffffffffffffffffffff161415611024576040517f08c379a000000000000000000000000000000000000000000000000000000000815260040161101b906126b7565b60405180910390fd5b61103183838360016118f8565b8273ffffffffffffffffffffffffffffffffffffffff16611051826107fd565b73ffffffffffffffffffffffffffffffffffffffff16146110a7576040517f08c379a000000000000000000000000000000000000000000000000000000000815260040161109e90612677565b60405180910390fd5b6004600082815260200190815260200160002060006101000a81549073ffffffffffffffffffffffffffffffffffffffff02191690556001600360008573ffffffffffffffffffffffffffffffffffffffff1673ffffffffffffffffffffffffffffffffffffffff168152602001908152602001600020600082825403925050819055506001600360008473ffffffffffffffffffffffffffffffffffffffff1673ffffffffffffffffffffffffffffffffffffffff16815260200190815260200160002060008282540192505081905550816002600083815260200190815260200160002060006101000a81548173ffffffffffffffffffffffffffffffffffffffff021916908373ffffffffffffffffffffffffffffffffffffffff160217905550808273ffffffffffffffffffffffffffffffffffffffff168473ffffffffffffffffffffffffffffffffffffffff167fddf252ad1be2c89b69c2b068fc378daa952ba7f163c4a11628f55a4df523b3ef60405160405180910390a461123383838360016118fe565b505050565b60006002600083815260200190815260200160002060009054906101000a900473ffffffffffffffffffffffffffffffffffffffff169050919050565b61127d610de8565b73ffffffffffffffffffffffffffffffffffffffff1661129b61099c565b73ffffffffffffffffffffffffffffffffffffffff16146112f1576040517f08c379a00000000000000000000000000000000000000000000000000000000081526004016112e890612757565b60405180910390fd5b565b6000600760009054906101000a900473ffffffffffffffffffffffffffffffffffffffff16905081600760006101000a81548173ffffffffffffffffffffffffffffffffffffffff021916908373ffffffffffffffffffffffffffffffffffffffff1602179055508173ffffffffffffffffffffffffffffffffffffffff168173ffffffffffffffffffffffffffffffffffffffff167f8be0079c531659141344cd1fd0a4f28419497f9722a3daafe3b4186f6b6457e060405160405180910390a35050565b8173ffffffffffffffffffffffffffffffffffffffff168373ffffffffffffffffffffffffffffffffffffffff161415611428576040517f08c379a000000000000000000000000000000000000000000000000000000000815260040161141f906126d7565b60405180910390fd5b80600560008573ffffffffffffffffffffffffffffffffffffffff1673ffffffffffffffffffffffffffffffffffffffff16815260200190815260200160002060008473ffffffffffffffffffffffffffffffffffffffff1673ffffffffffffffffffffffffffffffffffffffff16815260200190815260200160002060006101000a81548160ff0219169083151502179055508173ffffffffffffffffffffffffffffffffffffffff168373ffffffffffffffffffffffffffffffffffffffff167f17307eab39ab6107e8899845ad3d59bd9653f200f220920489ca2b5937696c318360405161151991906125bf565b60405180910390a3505050565b611531848484610f3e565b61153d84848484611904565b61157c576040517f08c379a000000000000000000000000000000000000000000000000000000000815260040161157390612637565b60405180910390fd5b50505050565b606060405180602001604052806000815250905090565b60606115a482610d9d565b60006115ae611582565b905060008151116115ce57604051806020016040528060008152506115f9565b806115d884611a9b565b6040516020016115e9929190612534565b6040516020818303038152906040525b915050919050565b6001816000016000828254019250508190555050565b600081600001549050919050565b600073ffffffffffffffffffffffffffffffffffffffff168273ffffffffffffffffffffffffffffffffffffffff161415611695576040517f08c379a000000000000000000000000000000000000000000000000000000000815260040161168c90612737565b60405180910390fd5b61169e816118b7565b156116de576040517f08c379a00000000000000000000000000000000000000000000000000000000081526004016116d590612697565b60405180910390fd5b6116ec6000838360016118f8565b6116f5816118b7565b15611735576040517f08c379a000000000000000000000000000000000000000000000000000000000815260040161172c90612697565b60405180910390fd5b6001600360008473ffffffffffffffffffffffffffffffffffffffff1673ffffffffffffffffffffffffffffffffffffffff16815260200190815260200160002060008282540192505081905550816002600083815260200190815260200160002060006101000a81548173ffffffffffffffffffffffffffffffffffffffff021916908373ffffffffffffffffffffffffffffffffffffffff160217905550808273ffffffffffffffffffffffffffffffffffffffff16600073ffffffffffffffffffffffffffffffffffffffff167fddf252ad1be2c89b69c2b068fc378daa952ba7f163c4a11628f55a4df523b3ef60405160405180910390a461183f6000838360016118fe565b5050565b61184c826118b7565b61188b576040517f08c379a000000000000000000000000000000000000000000000000000000000815260040161188290612717565b60405180910390fd5b806006600084815260200190815260200160002090805190602001906118b2929190611e19565b505050565b60008073ffffffffffffffffffffffffffffffffffffffff166118d983611238565b73ffffffffffffffffffffffffffffffffffffffff1614159050919050565b50505050565b50505050565b60006119258473ffffffffffffffffffffffffffffffffffffffff16611bbf565b15611a8e578373ffffffffffffffffffffffffffffffffffffffff1663150b7a0261194e610de8565b8786866040518563ffffffff1660e01b81526004016119709493929190612573565b602060405180830381600087803b15801561198a57600080fd5b505af19250505080156119bb57506040513d601f19601f820116820180604052508101906119b89190612219565b60015b611a3e573d80600081146119eb576040519150601f19603f3d011682016040523d82523d6000602084013e6119f0565b606091505b50600081511415611a36576040517f08c379a0000000000000000000000000000000000000000000000000000000008152600401611a2d90612637565b60405180910390fd5b805181602001fd5b63150b7a0260e01b7bffffffffffffffffffffffffffffffffffffffffffffffffffffffff1916817bffffffffffffffffffffffffffffffffffffffffffffffffffffffff191614915050611a93565b600190505b949350505050565b606060006001611aaa84611be2565b01905060008167ffffffffffffffff811115611aef577f4e487b7100000000000000000000000000000000000000000000000000000000600052604160045260246000fd5b6040519080825280601f01601f191660200182016040528015611b215781602001600182028036833780820191505090505b509050600082602001820190505b600115611bb4578080600190039150507f3031323334353637383961626364656600000000000000000000000000000000600a86061a8153600a8581611b9e577f4e487b7100000000000000000000000000000000000000000000000000000000600052601260045260246000fd5b0494506000851415611baf57611bb4565b611b2f565b819350505050919050565b6000808273ffffffffffffffffffffffffffffffffffffffff163b119050919050565b600080600090507a184f03e93ff9f4daa797ed6e38ed64bf6a1f0100000000000000008310611c66577a184f03e93ff9f4daa797ed6e38ed64bf6a1f0100000000000000008381611c5c577f4e487b7100000000000000000000000000000000000000000000000000000000600052601260045260246000fd5b0492506040810190505b6d04ee2d6d415b85acef81000000008310611cc9576d04ee2d6d415b85acef81000000008381611cbf577f4e487b7100000000000000000000000000000000000000000000000000000000600052601260045260246000fd5b0492506020810190505b662386f26fc100008310611d1e57662386f26fc100008381611d14577f4e487b7100000000000000000000000000000000000000000000000000000000600052601260045260246000fd5b0492506010810190505b6305f5e1008310611d6d576305f5e1008381611d63577f4e487b7100000000000000000000000000000000000000000000000000000000600052601260045260246000fd5b0492506008810190505b6127108310611db8576127108381611dae577f4e487b7100000000000000000000000000000000000000000000000000000000600052601260045260246000fd5b0492506004810190505b60648310611e015760648381611df7577f4e487b7100000000000000000000000000000000000000000000000000000000600052601260045260246000fd5b0492506002810190505b600a8310611e10576001810190505b80915050919050565b828054611e2590612996565b90600052602060002090601f016020900481019282611e475760008555611e8e565b82601f10611e6057805160ff1916838001178555611e8e565b82800160010185558215611e8e579182015b82811115611e8d578251825591602001919060010190611e72565b5b509050611e9b9190611e9f565b5090565b5b80821115611eb8576000816000905550600101611ea0565b5090565b6000611ecf611eca84612817565b6127f2565b905082815260208101848484011115611ee757600080fd5b611ef2848285612954565b509392505050565b6000611f0d611f0884612848565b6127f2565b905082815260208101848484011115611f2557600080fd5b611f30848285612954565b509392505050565b600081359050611f4781612dfc565b92915050565b600081359050611f5c81612e13565b92915050565b600081359050611f7181612e2a565b92915050565b600081519050611f8681612e2a565b92915050565b600082601f830112611f9d57600080fd5b8135611fad848260208601611ebc565b91505092915050565b600082601f830112611fc757600080fd5b8135611fd7848260208601611efa565b91505092915050565b600081359050611fef81612e41565b92915050565b60006020828403121561200757600080fd5b600061201584828501611f38565b91505092915050565b6000806040838503121561203157600080fd5b600061203f85828601611f38565b925050602061205085828601611f38565b9150509250929050565b60008060006060848603121561206f57600080fd5b600061207d86828701611f38565b935050602061208e86828701611f38565b925050604061209f86828701611fe0565b9150509250925092565b600080600080608085870312156120bf57600080fd5b60006120cd87828801611f38565b94505060206120de87828801611f38565b93505060406120ef87828801611fe0565b925050606085013567ffffffffffffffff81111561210c57600080fd5b61211887828801611f8c565b91505092959194509250565b6000806040838503121561213757600080fd5b600061214585828601611f38565b925050602061215685828601611f4d565b9150509250929050565b6000806040838503121561217357600080fd5b600061218185828601611f38565b925050602083013567ffffffffffffffff81111561219e57600080fd5b6121aa85828601611fb6565b9150509250929050565b600080604083850312156121c757600080fd5b60006121d585828601611f38565b92505060206121e685828601611fe0565b9150509250929050565b60006020828403121561220257600080fd5b600061221084828501611f62565b91505092915050565b60006020828403121561222b57600080fd5b600061223984828501611f77565b91505092915050565b60006020828403121561225457600080fd5b600061226284828501611fe0565b91505092915050565b612274816128bc565b82525050565b612283816128ce565b82525050565b600061229482612879565b61229e818561288f565b93506122ae818560208601612963565b6122b781612a57565b840191505092915050565b6122cb81612930565b82525050565b60006122dc82612884565b6122e681856128a0565b93506122f6818560208601612963565b6122ff81612a57565b840191505092915050565b600061231582612884565b61231f81856128b1565b935061232f818560208601612963565b80840191505092915050565b6000612348602d836128a0565b915061235382612a68565b604082019050919050565b600061236b6032836128a0565b915061237682612ab7565b604082019050919050565b600061238e6026836128a0565b915061239982612b06565b604082019050919050565b60006123b16025836128a0565b91506123bc82612b55565b604082019050919050565b60006123d4601c836128a0565b91506123df82612ba4565b602082019050919050565b60006123f76024836128a0565b915061240282612bcd565b604082019050919050565b600061241a6019836128a0565b915061242582612c1c565b602082019050919050565b600061243d6029836128a0565b915061244882612c45565b604082019050919050565b6000612460602e836128a0565b915061246b82612c94565b604082019050919050565b60006124836020836128a0565b915061248e82612ce3565b602082019050919050565b60006124a66020836128a0565b91506124b182612d0c565b602082019050919050565b60006124c96018836128a0565b91506124d482612d35565b602082019050919050565b60006124ec6021836128a0565b91506124f782612d5e565b604082019050919050565b600061250f603d836128a0565b915061251a82612dad565b604082019050919050565b61252e81612926565b82525050565b6000612540828561230a565b915061254c828461230a565b91508190509392505050565b600060208201905061256d600083018461226b565b92915050565b6000608082019050612588600083018761226b565b612595602083018661226b565b6125a26040830185612525565b81810360608301526125b48184612289565b905095945050505050565b60006020820190506125d4600083018461227a565b92915050565b60006020820190506125ef60008301846122c2565b92915050565b6000602082019050818103600083015261260f81846122d1565b905092915050565b600060208201905081810360008301526126308161233b565b9050919050565b600060208201905081810360008301526126508161235e565b9050919050565b6000602082019050818103600083015261267081612381565b9050919050565b60006020820190508181036000830152612690816123a4565b9050919050565b600060208201905081810360008301526126b0816123c7565b9050919050565b600060208201905081810360008301526126d0816123ea565b9050919050565b600060208201905081810360008301526126f08161240d565b9050919050565b6000602082019050818103600083015261271081612430565b9050919050565b6000602082019050818103600083015261273081612453565b9050919050565b6000602082019050818103600083015261275081612476565b9050919050565b6000602082019050818103600083015261277081612499565b9050919050565b60006020820190508181036000830152612790816124bc565b9050919050565b600060208201905081810360008301526127b0816124df565b9050919050565b600060208201905081810360008301526127d081612502565b9050919050565b60006020820190506127ec6000830184612525565b92915050565b60006127fc61280d565b905061280882826129c8565b919050565b6000604051905090565b600067ffffffffffffffff82111561283257612831612a28565b5b61283b82612a57565b9050602081019050919050565b600067ffffffffffffffff82111561286357612862612a28565b5b61286c82612a57565b9050602081019050919050565b600081519050919050565b600081519050919050565b600082825260208201905092915050565b600082825260208201905092915050565b600081905092915050565b60006128c782612906565b9050919050565b60008115159050919050565b60007fffffffff0000000000000000000000000000000000000000000000000000000082169050919050565b600073ffffffffffffffffffffffffffffffffffffffff82169050919050565b6000819050919050565b600061293b82612942565b9050919050565b600061294d82612906565b9050919050565b82818337600083830152505050565b60005b83811015612981578082015181840152602081019050612966565b83811115612990576000848401525b50505050565b600060028204905060018216806129ae57607f821691505b602082108114156129c2576129c16129f9565b5b50919050565b6129d182612a57565b810181811067ffffffffffffffff821117156129f0576129ef612a28565b5b80604052505050565b7f4e487b7100000000000000000000000000000000000000000000000000000000600052602260045260246000fd5b7f4e487b7100000000000000000000000000000000000000000000000000000000600052604160045260246000fd5b6000601f19601f8301169050919050565b7f4552433732313a2063616c6c6572206973206e6f7420746f6b656e206f776e6560008201527f72206f7220617070726f76656400000000000000000000000000000000000000602082015250565b7f4552433732313a207472616e7366657220746f206e6f6e20455243373231526560008201527f63656976657220696d706c656d656e7465720000000000000000000000000000602082015250565b7f4f776e61626c653a206e6577206f776e657220697320746865207a65726f206160008201527f6464726573730000000000000000000000000000000000000000000000000000602082015250565b7f4552433732313a207472616e736665722066726f6d20696e636f72726563742060008201527f6f776e6572000000000000000000000000000000000000000000000000000000602082015250565b7f4552433732313a20746f6b656e20616c7265616479206d696e74656400000000600082015250565b7f4552433732313a207472616e7366657220746f20746865207a65726f2061646460008201527f7265737300000000000000000000000000000000000000000000000000000000602082015250565b7f4552433732313a20617070726f766520746f2063616c6c657200000000000000600082015250565b7f4552433732313a2061646472657373207a65726f206973206e6f74206120766160008201527f6c6964206f776e65720000000000000000000000000000000000000000000000602082015250565b7f45524337323155524953746f726167653a2055524920736574206f66206e6f6e60008201527f6578697374656e7420746f6b656e000000000000000000000000000000000000602082015250565b7f4552433732313a206d696e7420746f20746865207a65726f2061646472657373600082015250565b7f4f776e61626c653a2063616c6c6572206973206e6f7420746865206f776e6572600082015250565b7f4552433732313a20696e76616c696420746f6b656e2049440000000000000000600082015250565b7f4552433732313a20617070726f76616c20746f2063757272656e74206f776e6560008201527f7200000000000000000000000000000000000000000000000000000000000000602082015250565b7f4552433732313a20617070726f76652063616c6c6572206973206e6f7420746f60008201527f6b656e206f776e6572206f7220617070726f76656420666f7220616c6c000000602082015250565b612e05816128bc565b8114612e1057600080fd5b50565b612e1c816128ce565b8114612e2757600080fd5b50565b612e33816128da565b8114612e3e57600080fd5b50565b612e4a81612926565b8114612e5557600080fd5b5056fea264697066735822122075dff374479340c7c1670f87d3e3edfd39c598ea4c4762b65636564b7f73173264736f6c63430008010033",
  "linkReferences": {},
  "deployedLinkReferences": {}
}