{
  "_format": "hh-sol-artifact-1",
  "contractName": "Deposit",
  "sourceName": "contracts/Deposit.sol",
  "abi": [
    {
      "inputs": [
        {
          "internalType": "address",
          "name": "_qve",
          "type": "address"
        },
        {
          "internalType": "address",
          "name": "_usdt",
          "type": "address"
        },
        {
          "internalType": "address",
          "name": "_usdc",
          "type": "address"
        },
        {
          "internalType": "address",
          "name": "_eth",
          "type": "address"
        },
        {
          "internalType": "address",
          "name": "_bnb",
          "type": "address"
        },
        {
          "internalType": "address",
          "name": "_qveNft",
          "type": "address"
        }
      ],
      "stateMutability": "nonpayable",
      "type": "constructor"
    },
    {
      "inputs": [],
      "name": "bnb",
      "outputs": [
        {
          "internalType": "contract IERC20",
          "name": "",
          "type": "address"
        }
      ],
      "stateMutability": "view",
      "type": "function"
    },
    {
      "inputs": [
        {
          "internalType": "address",
          "name": "_tokenType",
          "type": "address"
        },
        {
          "internalType": "uint256",
          "name": "_amount",
          "type": "uint256"
        },
        {
          "internalType": "string",
          "name": "tokenURI",
          "type": "string"
        }
      ],
      "name": "deposit",
      "outputs": [],
      "stateMutability": "nonpayable",
      "type": "function"
    },
    {
      "inputs": [],
      "name": "eth",
      "outputs": [
        {
          "internalType": "contract IERC20",
          "name": "",
          "type": "address"
        }
      ],
      "stateMutability": "view",
      "type": "function"
    },
    {
      "inputs": [],
      "name": "qve",
      "outputs": [
        {
          "internalType": "contract IERC20",
          "name": "",
          "type": "address"
        }
      ],
      "stateMutability": "view",
      "type": "function"
    },
    {
      "inputs": [],
      "name": "qveNft",
      "outputs": [
        {
          "internalType": "contract QveNFT",
          "name": "",
          "type": "address"
        }
      ],
      "stateMutability": "view",
      "type": "function"
    },
    {
      "inputs": [
        {
          "internalType": "address",
          "name": "_tokenType",
          "type": "address"
        },
        {
          "internalType": "uint256",
          "name": "_amount",
          "type": "uint256"
        }
      ],
      "name": "stake",
      "outputs": [],
      "stateMutability": "nonpayable",
      "type": "function"
    },
    {
      "inputs": [],
      "name": "usdc",
      "outputs": [
        {
          "internalType": "contract IERC20",
          "name": "",
          "type": "address"
        }
      ],
      "stateMutability": "view",
      "type": "function"
    },
    {
      "inputs": [],
      "name": "usdt",
      "outputs": [
        {
          "internalType": "contract IERC20",
          "name": "",
          "type": "address"
        }
      ],
      "stateMutability": "view",
      "type": "function"
    }
  ],
  "bytecode": "0x608060405234801561001057600080fd5b506040516106b23803806106b283398101604081905261002f916100bd565b600080546001600160a01b03199081166001600160a01b0398891617909155600180548216968816969096179095556002805486169487169490941790935560038054851692861692909217909155600480548416918516919091179055600580549092169216919091179055610131565b80516001600160a01b03811681146100b857600080fd5b919050565b60008060008060008060c087890312156100d657600080fd5b6100df876100a1565b95506100ed602088016100a1565b94506100fb604088016100a1565b9350610109606088016100a1565b9250610117608088016100a1565b915061012560a088016100a1565b90509295509295509295565b610572806101406000396000f3fe608060405234801561001057600080fd5b50600436106100885760003560e01c8063863ea36e1161005b578063863ea36e146100f55780638c7c9e0c14610108578063adc9772e1461011b578063bfe07da61461013057600080fd5b80630ad235341461008d5780632f48ab7d146100bc5780633e413bee146100cf57806349a876e4146100e2575b600080fd5b6005546100a0906001600160a01b031681565b6040516001600160a01b03909116815260200160405180910390f35b6001546100a0906001600160a01b031681565b6002546100a0906001600160a01b031681565b6004546100a0906001600160a01b031681565b6000546100a0906001600160a01b031681565b6003546100a0906001600160a01b031681565b61012e61012936600461038a565b610143565b005b61012e61013e3660046103ca565b610218565b6000811161018d5760405162461bcd60e51b81526020600482015260126024820152710616d6f756e742063616e6e6f7420626520360741b60448201526064015b60405180910390fd5b6040516323b872dd60e01b8152336004820152306024820152604481018290526001600160a01b038316906323b872dd90606401602060405180830381600087803b1580156101db57600080fd5b505af11580156101ef573d6000803e3d6000fd5b505050506040513d601f19601f820116820180604052508101906102139190610495565b505050565b6000821161025d5760405162461bcd60e51b81526020600482015260126024820152710616d6f756e742063616e6e6f7420626520360741b6044820152606401610184565b6040516323b872dd60e01b8152336004820152306024820152604481018390526001600160a01b038416906323b872dd90606401602060405180830381600087803b1580156102ab57600080fd5b505af11580156102bf573d6000803e3d6000fd5b505050506040513d601f19601f820116820180604052508101906102e39190610495565b50600554604051633ab2af8560e21b81526001600160a01b039091169063eacabe149061031690339085906004016104be565b602060405180830381600087803b15801561033057600080fd5b505af1158015610344573d6000803e3d6000fd5b505050506040513d601f19601f820116820180604052508101906103689190610523565b50505050565b80356001600160a01b038116811461038557600080fd5b919050565b6000806040838503121561039d57600080fd5b6103a68361036e565b946020939093013593505050565b634e487b7160e01b600052604160045260246000fd5b6000806000606084860312156103df57600080fd5b6103e88461036e565b925060208401359150604084013567ffffffffffffffff8082111561040c57600080fd5b818601915086601f83011261042057600080fd5b813581811115610432576104326103b4565b604051601f8201601f19908116603f0116810190838211818310171561045a5761045a6103b4565b8160405282815289602084870101111561047357600080fd5b8260208601602083013760006020848301015280955050505050509250925092565b6000602082840312156104a757600080fd5b815180151581146104b757600080fd5b9392505050565b60018060a01b038316815260006020604081840152835180604085015260005b818110156104fa578581018301518582016060015282016104de565b8181111561050c576000606083870101525b50601f01601f191692909201606001949350505050565b60006020828403121561053557600080fd5b505191905056fea264697066735822122083d91eccd7ab91620a32ab4b31ddb117055cbfdc2afa70f2847391959a0809ec64736f6c63430008090033",
  "linkReferences": {},
  "deployedLinkReferences": {}
}