{
  "_format": "hh-sol-artifact-1",
  "contractName": "QveNFT",
  "sourceName": "contracts/QveNFT.sol",
  "abi": [
    {
      "inputs": [],
      "stateMutability": "nonpayable",
      "type": "constructor"
    },
    {
      "anonymous": false,
      "inputs": [
        {
          "indexed": true,
          "internalType": "address",
          "name": "owner",
          "type": "address"
        },
        {
          "indexed": true,
          "internalType": "address",
          "name": "approved",
          "type": "address"
        },
        {
          "indexed": true,
          "internalType": "uint256",
          "name": "tokenId",
          "type": "uint256"
        }
      ],
      "name": "Approval",
      "type": "event"
    },
    {
      "anonymous": false,
      "inputs": [
        {
          "indexed": true,
          "internalType": "address",
          "name": "owner",
          "type": "address"
        },
        {
          "indexed": true,
          "internalType": "address",
          "name": "operator",
          "type": "address"
        },
        {
          "indexed": false,
          "internalType": "bool",
          "name": "approved",
          "type": "bool"
        }
      ],
      "name": "ApprovalForAll",
      "type": "event"
    },
    {
      "anonymous": false,
      "inputs": [
        {
          "indexed": true,
          "internalType": "address",
          "name": "previousOwner",
          "type": "address"
        },
        {
          "indexed": true,
          "internalType": "address",
          "name": "newOwner",
          "type": "address"
        }
      ],
      "name": "OwnershipTransferred",
      "type": "event"
    },
    {
      "anonymous": false,
      "inputs": [
        {
          "indexed": true,
          "internalType": "address",
          "name": "from",
          "type": "address"
        },
        {
          "indexed": true,
          "internalType": "address",
          "name": "to",
          "type": "address"
        },
        {
          "indexed": true,
          "internalType": "uint256",
          "name": "tokenId",
          "type": "uint256"
        }
      ],
      "name": "Transfer",
      "type": "event"
    },
    {
      "inputs": [
        {
          "internalType": "address",
          "name": "to",
          "type": "address"
        },
        {
          "internalType": "uint256",
          "name": "tokenId",
          "type": "uint256"
        }
      ],
      "name": "approve",
      "outputs": [],
      "stateMutability": "nonpayable",
      "type": "function"
    },
    {
      "inputs": [
        {
          "internalType": "address",
          "name": "owner",
          "type": "address"
        }
      ],
      "name": "balanceOf",
      "outputs": [
        {
          "internalType": "uint256",
          "name": "",
          "type": "uint256"
        }
      ],
      "stateMutability": "view",
      "type": "function"
    },
    {
      "inputs": [],
      "name": "bnb",
      "outputs": [
        {
          "internalType": "contract IERC20",
          "name": "",
          "type": "address"
        }
      ],
      "stateMutability": "view",
      "type": "function"
    },
    {
      "inputs": [],
      "name": "eth",
      "outputs": [
        {
          "internalType": "contract IERC20",
          "name": "",
          "type": "address"
        }
      ],
      "stateMutability": "view",
      "type": "function"
    },
    {
      "inputs": [
        {
          "internalType": "uint256",
          "name": "tokenId",
          "type": "uint256"
        }
      ],
      "name": "getApproved",
      "outputs": [
        {
          "internalType": "address",
          "name": "",
          "type": "address"
        }
      ],
      "stateMutability": "view",
      "type": "function"
    },
    {
      "inputs": [
        {
          "internalType": "address",
          "name": "owner",
          "type": "address"
        },
        {
          "internalType": "address",
          "name": "operator",
          "type": "address"
        }
      ],
      "name": "isApprovedForAll",
      "outputs": [
        {
          "internalType": "bool",
          "name": "",
          "type": "bool"
        }
      ],
      "stateMutability": "view",
      "type": "function"
    },
    {
      "inputs": [
        {
          "internalType": "address",
          "name": "recipient",
          "type": "address"
        },
        {
          "internalType": "string",
          "name": "tokenURI",
          "type": "string"
        }
      ],
      "name": "mintNFT",
      "outputs": [
        {
          "internalType": "uint256",
          "name": "",
          "type": "uint256"
        }
      ],
      "stateMutability": "nonpayable",
      "type": "function"
    },
    {
      "inputs": [],
      "name": "name",
      "outputs": [
        {
          "internalType": "string",
          "name": "",
          "type": "string"
        }
      ],
      "stateMutability": "view",
      "type": "function"
    },
    {
      "inputs": [],
      "name": "owner",
      "outputs": [
        {
          "internalType": "address",
          "name": "",
          "type": "address"
        }
      ],
      "stateMutability": "view",
      "type": "function"
    },
    {
      "inputs": [
        {
          "internalType": "uint256",
          "name": "tokenId",
          "type": "uint256"
        }
      ],
      "name": "ownerOf",
      "outputs": [
        {
          "internalType": "address",
          "name": "",
          "type": "address"
        }
      ],
      "stateMutability": "view",
      "type": "function"
    },
    {
      "inputs": [],
      "name": "qve",
      "outputs": [
        {
          "internalType": "contract IERC20",
          "name": "",
          "type": "address"
        }
      ],
      "stateMutability": "view",
      "type": "function"
    },
    {
      "inputs": [],
      "name": "renounceOwnership",
      "outputs": [],
      "stateMutability": "nonpayable",
      "type": "function"
    },
    {
      "inputs": [
        {
          "internalType": "address",
          "name": "from",
          "type": "address"
        },
        {
          "internalType": "address",
          "name": "to",
          "type": "address"
        },
        {
          "internalType": "uint256",
          "name": "tokenId",
          "type": "uint256"
        }
      ],
      "name": "safeTransferFrom",
      "outputs": [],
      "stateMutability": "nonpayable",
      "type": "function"
    },
    {
      "inputs": [
        {
          "internalType": "address",
          "name": "from",
          "type": "address"
        },
        {
          "internalType": "address",
          "name": "to",
          "type": "address"
        },
        {
          "internalType": "uint256",
          "name": "tokenId",
          "type": "uint256"
        },
        {
          "internalType": "bytes",
          "name": "data",
          "type": "bytes"
        }
      ],
      "name": "safeTransferFrom",
      "outputs": [],
      "stateMutability": "nonpayable",
      "type": "function"
    },
    {
      "inputs": [
        {
          "internalType": "address",
          "name": "operator",
          "type": "address"
        },
        {
          "internalType": "bool",
          "name": "approved",
          "type": "bool"
        }
      ],
      "name": "setApprovalForAll",
      "outputs": [],
      "stateMutability": "nonpayable",
      "type": "function"
    },
    {
      "inputs": [
        {
          "internalType": "bytes4",
          "name": "interfaceId",
          "type": "bytes4"
        }
      ],
      "name": "supportsInterface",
      "outputs": [
        {
          "internalType": "bool",
          "name": "",
          "type": "bool"
        }
      ],
      "stateMutability": "view",
      "type": "function"
    },
    {
      "inputs": [],
      "name": "symbol",
      "outputs": [
        {
          "internalType": "string",
          "name": "",
          "type": "string"
        }
      ],
      "stateMutability": "view",
      "type": "function"
    },
    {
      "inputs": [
        {
          "internalType": "uint256",
          "name": "tokenId",
          "type": "uint256"
        }
      ],
      "name": "tokenURI",
      "outputs": [
        {
          "internalType": "string",
          "name": "",
          "type": "string"
        }
      ],
      "stateMutability": "view",
      "type": "function"
    },
    {
      "inputs": [
        {
          "internalType": "address",
          "name": "from",
          "type": "address"
        },
        {
          "internalType": "address",
          "name": "to",
          "type": "address"
        },
        {
          "internalType": "uint256",
          "name": "tokenId",
          "type": "uint256"
        }
      ],
      "name": "transferFrom",
      "outputs": [],
      "stateMutability": "nonpayable",
      "type": "function"
    },
    {
      "inputs": [
        {
          "internalType": "address",
          "name": "newOwner",
          "type": "address"
        }
      ],
      "name": "transferOwnership",
      "outputs": [],
      "stateMutability": "nonpayable",
      "type": "function"
    },
    {
      "inputs": [],
      "name": "usdc",
      "outputs": [
        {
          "internalType": "contract IERC20",
          "name": "",
          "type": "address"
        }
      ],
      "stateMutability": "view",
      "type": "function"
    },
    {
      "inputs": [],
      "name": "usdt",
      "outputs": [
        {
          "internalType": "contract IERC20",
          "name": "",
          "type": "address"
        }
      ],
      "stateMutability": "view",
      "type": "function"
    }
  ],
  "bytecode": "0x60806040523480156200001157600080fd5b506040805180820182526006815265145d9953919560d21b60208083019182528351808501909452600384526213919560ea1b9084015281519192916200005b91600091620000ea565b50805162000071906001906020840190620000ea565b5050506200008e620000886200009460201b60201c565b62000098565b620001cd565b3390565b600780546001600160a01b038381166001600160a01b0319831681179093556040519116919082907f8be0079c531659141344cd1fd0a4f28419497f9722a3daafe3b4186f6b6457e090600090a35050565b828054620000f89062000190565b90600052602060002090601f0160209004810192826200011c576000855562000167565b82601f106200013757805160ff191683800117855562000167565b8280016001018555821562000167579182015b82811115620001675782518255916020019190600101906200014a565b506200017592915062000179565b5090565b5b808211156200017557600081556001016200017a565b600181811c90821680620001a557607f821691505b60208210811415620001c757634e487b7160e01b600052602260045260246000fd5b50919050565b6117d880620001dd6000396000f3fe608060405234801561001057600080fd5b50600436106101425760003560e01c8063715018a6116100b8578063a22cb4651161007c578063a22cb4651461029e578063b88d4fde146102b1578063c87b56dd146102c4578063e985e9c5146102d7578063eacabe1414610313578063f2fde38b1461032657600080fd5b8063715018a614610257578063863ea36e1461025f5780638c7c9e0c146102725780638da5cb5b1461028557806395d89b411461029657600080fd5b80632f48ab7d1161010a5780632f48ab7d146101d75780633e413bee146101ea57806342842e0e146101fd57806349a876e4146102105780636352211e1461022357806370a082311461023657600080fd5b806301ffc9a71461014757806306fdde031461016f578063081812fc14610184578063095ea7b3146101af57806323b872dd146101c4575b600080fd5b61015a6101553660046112e3565b610339565b60405190151581526020015b60405180910390f35b61017761038b565b6040516101669190611358565b61019761019236600461136b565b61041d565b6040516001600160a01b039091168152602001610166565b6101c26101bd3660046113a0565b610444565b005b6101c26101d23660046113ca565b61055f565b600a54610197906001600160a01b031681565b600b54610197906001600160a01b031681565b6101c261020b3660046113ca565b610590565b600d54610197906001600160a01b031681565b61019761023136600461136b565b6105ab565b610249610244366004611406565b61060b565b604051908152602001610166565b6101c2610691565b600954610197906001600160a01b031681565b600c54610197906001600160a01b031681565b6007546001600160a01b0316610197565b6101776106a5565b6101c26102ac366004611421565b6106b4565b6101c26102bf3660046114e9565b6106c3565b6101776102d236600461136b565b6106fb565b61015a6102e5366004611565565b6001600160a01b03918216600090815260056020908152604080832093909416825291909152205460ff1690565b610249610321366004611598565b61080c565b6101c2610334366004611406565b610844565b60006001600160e01b031982166380ac58cd60e01b148061036a57506001600160e01b03198216635b5e139f60e01b145b8061038557506301ffc9a760e01b6001600160e01b03198316145b92915050565b60606000805461039a906115fa565b80601f01602080910402602001604051908101604052809291908181526020018280546103c6906115fa565b80156104135780601f106103e857610100808354040283529160200191610413565b820191906000526020600020905b8154815290600101906020018083116103f657829003601f168201915b5050505050905090565b6000610428826108bd565b506000908152600460205260409020546001600160a01b031690565b600061044f826105ab565b9050806001600160a01b0316836001600160a01b031614156104c25760405162461bcd60e51b815260206004820152602160248201527f4552433732313a20617070726f76616c20746f2063757272656e74206f776e656044820152603960f91b60648201526084015b60405180910390fd5b336001600160a01b03821614806104de57506104de81336102e5565b6105505760405162461bcd60e51b815260206004820152603d60248201527f4552433732313a20617070726f76652063616c6c6572206973206e6f7420746f60448201527f6b656e206f776e6572206f7220617070726f76656420666f7220616c6c00000060648201526084016104b9565b61055a838361091c565b505050565b610569338261098a565b6105855760405162461bcd60e51b81526004016104b990611635565b61055a838383610a08565b61055a838383604051806020016040528060008152506106c3565b6000818152600260205260408120546001600160a01b0316806103855760405162461bcd60e51b8152602060048201526018602482015277115490cdcc8c4e881a5b9d985b1a59081d1bdad95b88125160421b60448201526064016104b9565b60006001600160a01b0382166106755760405162461bcd60e51b815260206004820152602960248201527f4552433732313a2061646472657373207a65726f206973206e6f7420612076616044820152683634b21037bbb732b960b91b60648201526084016104b9565b506001600160a01b031660009081526003602052604090205490565b610699610b6c565b6106a36000610bc6565b565b60606001805461039a906115fa565b6106bf338383610c18565b5050565b6106cd338361098a565b6106e95760405162461bcd60e51b81526004016104b990611635565b6106f584848484610ce7565b50505050565b6060610706826108bd565b6000828152600660205260408120805461071f906115fa565b80601f016020809104026020016040519081016040528092919081815260200182805461074b906115fa565b80156107985780601f1061076d57610100808354040283529160200191610798565b820191906000526020600020905b81548152906001019060200180831161077b57829003601f168201915b5050505050905060006107b660408051602081019091526000815290565b90508051600014156107c9575092915050565b8151156107fb5780826040516020016107e3929190611682565b60405160208183030381529060405292505050919050565b61080484610d1a565b949350505050565b600061081c600880546001019055565b600061082760085490565b90506108338482610d8d565b61083d8184610f18565b9392505050565b61084c610b6c565b6001600160a01b0381166108b15760405162461bcd60e51b815260206004820152602660248201527f4f776e61626c653a206e6577206f776e657220697320746865207a65726f206160448201526564647265737360d01b60648201526084016104b9565b6108ba81610bc6565b50565b6000818152600260205260409020546001600160a01b03166108ba5760405162461bcd60e51b8152602060048201526018602482015277115490cdcc8c4e881a5b9d985b1a59081d1bdad95b88125160421b60448201526064016104b9565b600081815260046020526040902080546001600160a01b0319166001600160a01b0384169081179091558190610951826105ab565b6001600160a01b03167f8c5be1e5ebec7d5bd14f71427d1e84f3dd0314c0f7b2291e5b200ac8c7c3b92560405160405180910390a45050565b600080610996836105ab565b9050806001600160a01b0316846001600160a01b031614806109dd57506001600160a01b0380821660009081526005602090815260408083209388168352929052205460ff165b806108045750836001600160a01b03166109f68461041d565b6001600160a01b031614949350505050565b826001600160a01b0316610a1b826105ab565b6001600160a01b031614610a415760405162461bcd60e51b81526004016104b9906116b1565b6001600160a01b038216610aa35760405162461bcd60e51b8152602060048201526024808201527f4552433732313a207472616e7366657220746f20746865207a65726f206164646044820152637265737360e01b60648201526084016104b9565b826001600160a01b0316610ab6826105ab565b6001600160a01b031614610adc5760405162461bcd60e51b81526004016104b9906116b1565b600081815260046020908152604080832080546001600160a01b03199081169091556001600160a01b0387811680865260038552838620805460001901905590871680865283862080546001019055868652600290945282852080549092168417909155905184937fddf252ad1be2c89b69c2b068fc378daa952ba7f163c4a11628f55a4df523b3ef91a4505050565b6007546001600160a01b031633146106a35760405162461bcd60e51b815260206004820181905260248201527f4f776e61626c653a2063616c6c6572206973206e6f7420746865206f776e657260448201526064016104b9565b600780546001600160a01b038381166001600160a01b0319831681179093556040519116919082907f8be0079c531659141344cd1fd0a4f28419497f9722a3daafe3b4186f6b6457e090600090a35050565b816001600160a01b0316836001600160a01b03161415610c7a5760405162461bcd60e51b815260206004820152601960248201527f4552433732313a20617070726f766520746f2063616c6c65720000000000000060448201526064016104b9565b6001600160a01b03838116600081815260056020908152604080832094871680845294825291829020805460ff191686151590811790915591519182527f17307eab39ab6107e8899845ad3d59bd9653f200f220920489ca2b5937696c31910160405180910390a3505050565b610cf2848484610a08565b610cfe84848484610fb2565b6106f55760405162461bcd60e51b81526004016104b9906116f6565b6060610d25826108bd565b6000610d3c60408051602081019091526000815290565b90506000815111610d5c576040518060200160405280600081525061083d565b80610d66846110bf565b604051602001610d77929190611682565b6040516020818303038152906040529392505050565b6001600160a01b038216610de35760405162461bcd60e51b815260206004820181905260248201527f4552433732313a206d696e7420746f20746865207a65726f206164647265737360448201526064016104b9565b6000818152600260205260409020546001600160a01b031615610e485760405162461bcd60e51b815260206004820152601c60248201527f4552433732313a20746f6b656e20616c7265616479206d696e7465640000000060448201526064016104b9565b6000818152600260205260409020546001600160a01b031615610ead5760405162461bcd60e51b815260206004820152601c60248201527f4552433732313a20746f6b656e20616c7265616479206d696e7465640000000060448201526064016104b9565b6001600160a01b038216600081815260036020908152604080832080546001019055848352600290915280822080546001600160a01b0319168417905551839291907fddf252ad1be2c89b69c2b068fc378daa952ba7f163c4a11628f55a4df523b3ef908290a45050565b6000828152600260205260409020546001600160a01b0316610f935760405162461bcd60e51b815260206004820152602e60248201527f45524337323155524953746f726167653a2055524920736574206f66206e6f6e60448201526d32bc34b9ba32b73a103a37b5b2b760911b60648201526084016104b9565b6000828152600660209081526040909120825161055a92840190611234565b60006001600160a01b0384163b156110b457604051630a85bd0160e11b81526001600160a01b0385169063150b7a0290610ff6903390899088908890600401611748565b602060405180830381600087803b15801561101057600080fd5b505af1925050508015611040575060408051601f3d908101601f1916820190925261103d91810190611785565b60015b61109a573d80801561106e576040519150601f19603f3d011682016040523d82523d6000602084013e611073565b606091505b5080516110925760405162461bcd60e51b81526004016104b9906116f6565b805181602001fd5b6001600160e01b031916630a85bd0160e11b149050610804565b506001949350505050565b606060006110cc8361115c565b600101905060008167ffffffffffffffff8111156110ec576110ec61145d565b6040519080825280601f01601f191660200182016040528015611116576020820181803683370190505b5090508181016020015b600019016f181899199a1a9b1b9c1cb0b131b232b360811b600a86061a8153600a850494508461114f57611154565b611120565b509392505050565b60008072184f03e93ff9f4daa797ed6e38ed64bf6a1f0160401b831061119b5772184f03e93ff9f4daa797ed6e38ed64bf6a1f0160401b830492506040015b6d04ee2d6d415b85acef810000000083106111c7576d04ee2d6d415b85acef8100000000830492506020015b662386f26fc1000083106111e557662386f26fc10000830492506010015b6305f5e10083106111fd576305f5e100830492506008015b612710831061121157612710830492506004015b60648310611223576064830492506002015b600a83106103855760010192915050565b828054611240906115fa565b90600052602060002090601f01602090048101928261126257600085556112a8565b82601f1061127b57805160ff19168380011785556112a8565b828001600101855582156112a8579182015b828111156112a857825182559160200191906001019061128d565b506112b49291506112b8565b5090565b5b808211156112b457600081556001016112b9565b6001600160e01b0319811681146108ba57600080fd5b6000602082840312156112f557600080fd5b813561083d816112cd565b60005b8381101561131b578181015183820152602001611303565b838111156106f55750506000910152565b60008151808452611344816020860160208601611300565b601f01601f19169290920160200192915050565b60208152600061083d602083018461132c565b60006020828403121561137d57600080fd5b5035919050565b80356001600160a01b038116811461139b57600080fd5b919050565b600080604083850312156113b357600080fd5b6113bc83611384565b946020939093013593505050565b6000806000606084860312156113df57600080fd5b6113e884611384565b92506113f660208501611384565b9150604084013590509250925092565b60006020828403121561141857600080fd5b61083d82611384565b6000806040838503121561143457600080fd5b61143d83611384565b91506020830135801515811461145257600080fd5b809150509250929050565b634e487b7160e01b600052604160045260246000fd5b600067ffffffffffffffff8084111561148e5761148e61145d565b604051601f8501601f19908116603f011681019082821181831017156114b6576114b661145d565b816040528093508581528686860111156114cf57600080fd5b858560208301376000602087830101525050509392505050565b600080600080608085870312156114ff57600080fd5b61150885611384565b935061151660208601611384565b925060408501359150606085013567ffffffffffffffff81111561153957600080fd5b8501601f8101871361154a57600080fd5b61155987823560208401611473565b91505092959194509250565b6000806040838503121561157857600080fd5b61158183611384565b915061158f60208401611384565b90509250929050565b600080604083850312156115ab57600080fd5b6115b483611384565b9150602083013567ffffffffffffffff8111156115d057600080fd5b8301601f810185136115e157600080fd5b6115f085823560208401611473565b9150509250929050565b600181811c9082168061160e57607f821691505b6020821081141561162f57634e487b7160e01b600052602260045260246000fd5b50919050565b6020808252602d908201527f4552433732313a2063616c6c6572206973206e6f7420746f6b656e206f776e6560408201526c1c881bdc88185c1c1c9bdd9959609a1b606082015260800190565b60008351611694818460208801611300565b8351908301906116a8818360208801611300565b01949350505050565b60208082526025908201527f4552433732313a207472616e736665722066726f6d20696e636f72726563742060408201526437bbb732b960d91b606082015260800190565b60208082526032908201527f4552433732313a207472616e7366657220746f206e6f6e20455243373231526560408201527131b2b4bb32b91034b6b83632b6b2b73a32b960711b606082015260800190565b6001600160a01b038581168252841660208201526040810183905260806060820181905260009061177b9083018461132c565b9695505050505050565b60006020828403121561179757600080fd5b815161083d816112cd56fea264697066735822122097aff6cd888b0d7de8ffea81f1b37f4c8f9bd7759304ee73c6b02bfcaada6d9f64736f6c63430008090033",
  "linkReferences": {},
  "deployedLinkReferences": {}
}